:020000040000fa
:080000000001040000000000f3
:020000040000fa
:0400080008020000ea
:020000040000fa
:04000c0008020000e6
:020000040000fa
:0400100008020000e2
:020000040000fa
:0400140008020000de
:020000040000fa
:0400180008020000da
:020000040000fa
:04001c0008020000d6
:020000040000fa
:0400200008020000d2
:020000040000fa
:0400240008020000ce
:020000040000fa
:0400280008020000ca
:020000040000fa
:04002c0008020000c6
:020000040000fa
:0400300008020000c2
:020000040000fa
:0400340008020000be
:020000040000fa
:0400380008020000ba
:020000040000fa
:04003c0008020000b6
:020000040000fa
:0400400008020000b2
:020000040000fa
:0400440008020000ae
:020000040000fa
:0400480008020000aa
:020000040000fa
:04004c0008020000a6
:020000040000fa
:0400500008020000a2
:020000040000fa
:04005400080200009e
:020000040000fa
:04005800080200009a
:020000040000fa
:04005c000802000096
:020000040000fa
:040060000802000092
:020000040000fa
:04006400080200008e
:020000040000fa
:04006800080200008a
:020000040000fa
:04006c000802000086
:020000040000fa
:040070000802000082
:020000040000fa
:04007400080200007e
:020000040000fa
:04007800080200007a
:020000040000fa
:04007c000802000076
:020000040000fa
:040080000802000072
:020000040000fa
:04008400080200006e
:020000040000fa
:04008800080200006a
:020000040000fa
:04008c000802000066
:020000040000fa
:040090000802000062
:020000040000fa
:04009400080200005e
:020000040000fa
:04009800080200005a
:020000040000fa
:04009c000802000056
:020000040000fa
:0400a0000802000052
:020000040000fa
:0400a400080200004e
:020000040000fa
:0400a800080200004a
:020000040000fa
:0400ac000802000046
:020000040000fa
:0400b0000802000042
:020000040000fa
:0400b400080200003e
:020000040000fa
:0400b800080200003a
:020000040000fa
:0400bc000802000036
:020000040000fa
:0400c0000802000032
:020000040000fa
:0400c400080200002e
:020000040000fa
:0400c800080200002a
:020000040000fa
:0400cc000802000026
:020000040000fa
:0400d0000802000022
:020000040000fa
:0400d400080200001e
:020000040000fa
:0400d800080200001a
:020000040000fa
:0400dc000802000016
:020000040000fa
:0400e0000802000012
:020000040000fa
:0400e400080200000e
:020000040000fa
:0400e800080200000a
:020000040000fa
:0400ec000802000006
:020000040000fa
:0400f0000802000002
:020000040000fa
:0400f40008020000fe
:020000040000fa
:0400f80008020000fa
:020000040000fa
:0400fc0008020000f6
:020000040000fa
:0401000008020000f1
:020000040000fa
:0401040008020000ed
:020000040000fa
:0401080008020000e9
:020000040000fa
:04010c0008020000e5
:020000040000fa
:0401100008020000e1
:020000040000fa
:0401140008020000dd
:020000040000fa
:0401180008020000d9
:020000040000fa
:04011c0008020000d5
:020000040000fa
:0401200008020000d1
:020000040000fa
:0401240008020000cd
:020000040000fa
:0401280008020000c9
:020000040000fa
:04012c0008020000c5
:020000040000fa
:0401300008020000c1
:020000040000fa
:0401340008020000bd
:020000040000fa
:0401380008020000b9
:020000040000fa
:04013c0008020000b5
:020000040000fa
:0401400008020000b1
:020000040000fa
:0401440008020000ad
:020000040000fa
:0401480008020000a9
:020000040000fa
:04014c0008020000a5
:020000040000fa
:0401500008020000a1
:020000040000fa
:04015400080200009d
:020000040000fa
:040158000802000099
:020000040000fa
:04015c000802000095
:020000040000fa
:040160000802000091
:020000040000fa
:04016400080200008d
:020000040000fa
:040168000802000089
:020000040000fa
:04016c000802000085
:020000040000fa
:040170000802000081
:020000040000fa
:04017400080200007d
:020000040000fa
:040178000802000079
:020000040000fa
:04017c000802000075
:020000040000fa
:040180000802000071
:020000040000fa
:04018400080200006d
:020000040000fa
:040188000802000069
:020000040000fa
:04018c000802000065
:020000040000fa
:040190000802000061
:020000040000fa
:04019400080200005d
:020000040000fa
:040198000802000059
:020000040000fa
:04019c000802000055
:020000040000fa
:0401a0000802000051
:020000040000fa
:0401a400080200004d
:020000040000fa
:0401a8000802000049
:020000040000fa
:0401ac000802000045
:020000040000fa
:0401b0000802000041
:020000040000fa
:0401b400080200003d
:020000040000fa
:0401b8000802000039
:020000040000fa
:0401bc000802000035
:020000040000fa
:0401c0000802000031
:020000040000fa
:0401c400080200002d
:020000040000fa
:0401c8000802000029
:020000040000fa
:0401cc000802000025
:020000040000fa
:0401d0000802000021
:020000040000fa
:0401d400080200001d
:020000040000fa
:0401d8000802000019
:020000040000fa
:0401dc000802000015
:020000040000fa
:0401e0000802000011
:020000040000fa
:0401e400080200000d
:020000040000fa
:0401e8000802000009
:020000040000fa
:0401ec000802000005
:020000040000fa
:0401f0000802000001
:020000040000fa
:0401f40008020000fd
:020000040000fa
:0401f80008020000f9
:020000040000fa
:0401fc0008020000f5
:020000040000fa
:10020000cf8320000e7f24000e0188000000000034
:10021000000020000000e000020032000001200089
:1002200020028800140007007b0007000000e000a7
:1002300003003a00c01f2100010020000200370027
:100240000000200001002000810f7000010032003a
:1002500014000700000020000000e000020032004f
:100260000000020000000000341202000000000044
:100270000040da000000fe004440a90020082000f1
:100280000000e00003003200002020009001880000
:100290004440a800000006008a1f78008b1f7800e9
:1002a00000000600a1028800800478000000eb0036
:1002b0001f003700e284440054a0b4009905ba003e
:1002c000e284440054a0b4009906ba00e2844400d9
:1002d00054a0b4000006eb00476fde00fd07b2003b
:1002e000ae018800636ce10003003a00eaff0700fa
:1002f0000000eb000e003700606ce10008003a00df
:10030000004deb000a05e800020039003420ec0043
:100310000af0a0008b05e900f9ff3e000400370059
:100320006168e100010032000086eb000b0007006d
:1003300019c7ba001905ba000e04e00003003a001c
:100340000a00e000dbff3a0000000600fe07b200f2
:10035000ae0288008a047800f5ff37000cd0a300b5
:10036000e20f4d001c00390089027800354dba00bb
:100370000a05e800020039003420ec000af0a00071
:100380008b05e9000f003200254dba000a05e80090
:10039000020039003420ec000af0a0008b05e900cf
:1003a000080032000c00e0000600320015cdba0053
:1003b0000a05e800020039003420ec000af0a00031
:1003c0008b05e9008984e80054a0b4000b00e0002c
:1003d000e2ff3a00000006009902ba00055d7800cd
:1003e0008b05e900f7ff3200c82ade00055d7800c2
:1003f0008b05e900f3ff32000c00e000f1ff320052
:1004000019ddba00eeff37001a02040000000000f8
:100410000040da000000fe000000050080007800c7
:10042000010178003104e000fdff3a0000005100b6
:1004300000000600881f7800020478000801780098
:10044000d6010700080040004f04780000000600b5
:100450000000fa00881f780000047800ea81570045
:100460003fb9970088007800a0212000070007000e
:100470000000e000020035008040eb0001747800cd
:100480004f0478000080fa00000006006200fa00c5
:10049000889fbe008a1f78000005780081047800dc
:1004a000020478008300780080f92f000f004000dc
:1004b000b80307009a979f00a9979f000000eb00e0
:1004c000b09f9f001885fb008a04fb000a05ea0024
:1004d0004f55de0050022000808f54000d00320086
:1004e000e10f55000b003a000a01780088007800ff
:1004f0002f9097009f91970003000100a0979f0005
:100500000000e0008e0032003f9897000000e800f5
:10051000b09f9f000a04440050022000808f5400c6
:10052000040032000900e000e6ff3a003f9897001f
:10053000840037000000eb00909f9f00809f9f0089
:10054000f0979f00e0979f00d0979f00c0979f0073
:1005500007003700618320000100500000004000c8
:10056000a182200061007800df98970001007000f0
:10057000d09f9f00880478000904780038457800ef
:100580008a00fb00608320008b0107000000e00070
:10059000f0ff3a00a1c2b300814f55000e003a00af
:1005a000cf8897000180e900c08f9f00100078007d
:1005b000c09f9f000000e00005003d000000ea0031
:1005c000c09f9f005f9897000020a000d09f9f00d1
:1005d0000904e8000f003700c09f9f000000eb00f7
:1005e00005003700f2ff2700820f500002003200a2
:1005f0006a01b9000280400009047800880478008c
:10060000b900fb000103b100e98f5000f5ff36008f
:10061000c09f9f00e0c2b300984f1000020032005c
:100620000080eb0019003700a0c2b300d84f1000c3
:1006300007003a00cf8897000180e900c08f9f0033
:1006400010007800a09f9f000804e8001000370009
:100650000000eb00a09f9f00880078000500370095
:10066000f3ff2700830f5000020032006a02b90036
:100670000400410001047800880078003101fb008b
:100680000203b100e90f5100f5ff3600a09f9f0063
:10069000984478008900fb00208220004601070072
:1006a0000000e000020032000804e800010037000a
:1006b0008044eb00c97f9f0080c6b30080cf540008
:1006c00004003a0098cf14000a003a006640500037
:1006d00006003700c0c6b30080cf540005003a00c2
:1006e00098cf140003003a0065404000c07f9f008f
:1006f0000804e8001801fb00e3fb2f008f81410094
:1007000081f92f008f804000a0f92f000f004000da
:10071000100007000000e00009003a00e1fb2f0094
:100720008f804000a0f92f000f0040005d020700fd
:100730000000e000020035000804e80061ff370017
:100740000080eb004f0578004f04be000080fa00e7
:1007500000000600889fbe008a9fbe00e4c6b3006a
:10076000844f5100be00320010003c006b4252002a
:10077000844f51001800320005003c0054c2b30001
:10078000844f5100f600320084c5b3000f003700db
:1007900044c6b300844f5100140032006542420049
:1007a000844f5100f1003a001000370004c7b30035
:1007b000844f5100dd003200560035006542420092
:1007c000844f51005300320063424200844f510075
:1007d000e6003a004f0037001181e90082087800f6
:1007e000f000900012417800de0037002062900097
:1007f000c5c6b300854f520007003a009102780049
:1008000064825200840878001402be004fabde0000
:10081000860378001400370015c7b300854f5200d7
:1008200003003a0011047800680254000500370004
:10083000a5c6b300854f520006003a009104780027
:1008400068825400840878005403be004402be004d
:10085000050037001182e90084087800140278004e
:10086000cfa2de00612bb9000498be000690be0046
:10087000a060900088c6b30088cf50000d00320001
:1008800028c6b30088cf500004003a000402fb00e1
:10089000cfa2de00612bb9000800370048c7b300c3
:1008a00088cf5000030032006644440088cf5000d7
:1008b00004003a00cfa2de00612bb9000498be000c
:1008c0000690be003002be002003be00f000900083
:1008d000e00f5200e08f5a00e00f5b00e08f5b00fa
:1008e00002003d00d4c2b30008003700001290009f
:1008f0000418a30002003200b4c2b30003003700a2
:100900000408a3005100320004c2b30084f178004f
:100910004c00370020629000c5c6b300854f5200de
:1009200008003a0011057800640255008408780038
:100930001404be006055b8000802be000a03be00e1
:100940001400370015c7b300854f520003003a006a
:10095000910478006882540005003700a5c6b300f2
:10096000854f520006003a001105780068025500d4
:10097000840878005403be004402be00050037001e
:100980001182e90084087800140278008002eb00ec
:100990006033b8000498be000690be00a0609000ce
:1009a00088c6b30088cf50000d00320028c6b300bf
:1009b00088cf500004003a000482fb008002eb0064
:1009c0006033b8000800370048c7b30088cf500034
:1009d000030032006644440088cf500004003a000f
:1009e0008002eb006033b8000498be000690be00a1
:1009f000801090000138a300140032003002be00c5
:100a00002003be00e00f5200e08f5a00e00f5b00b1
:100a1000e08f5b000d00320081c7b300814f5100b1
:100a20000300320081c5b300814f510007003a0036
:100a3000f000900004c3b30084f178008100e80066
:100a400082f178008100e80071009800f0009000c9
:100a50008181410063009800824078003e003700a9
:100a6000a0619000c4c6b3001181e90084cf510099
:100a7000220032000a003c006442520084cf510040
:100a80002500320004c2e80084cf51001300320078
:100a90006842520084cf51001e003a000a0037001d
:100aa00044c7b30084cf51001b00320066424200ad
:100ab00084cf5100180032006942520084cf5100a7
:100ac00014003a0005003700820878009200780090
:100ad00040589000804878002c0037008208780049
:100ae00092007800600a9000cfa2de00612bb9006e
:100af0008498be008690be002400370082087800eb
:100b00009200780060099000cf91de008288be00dc
:100b10001e0037001181e9008208780092007800f9
:100b20006008900080087800180037001181e90003
:100b30008208780012027800cfa2de00612bb90093
:100b40000498be000690be00f00090008181410034
:100b50006300980081c7b300230007000b00370033
:100b6000f000900082f1780006003700f00090005d
:100b7000818141000204e00001003a0052c2b3004a
:100b8000824978008100e800710098000000eb00c5
:100b90004f05be004f04be00000006008001780033
:100ba00002003700b15978000201e9000200e000bc
:100bb000fcff3a0000000600020037000304e000da
:100bc000060032000001780002007800b041780091
:100bd00081cf5100f9ff3a00010037000001eb001e
:100be0000200780000000600fc874700889fbe00d6
:100bf0008a9fbe008c9fbe008e1f78000006780082
:100c000080c5b30080cf50000a003200774040001a
:100c100080cf50000a0032006940400080cf500071
:100c20000b0032001081200080bf9f00ae0020002a
:100c30000a0037000280200082bf9f0006003700b4
:100c40001381200083bf9f008e0020000300370027
:100c50001481200084bf9f000e0120003c02be00d2
:100c60002c03be000605be000404be0040c6b3004f
:100c700080cf5000030032006540400080cf50001c
:100c80000b003a00e00f5200e08f5a00e00f5b00cb
:100c9000e08f5b0006003d006000b8006011b80006
:100ca00004045000858458000605590087855900c2
:100cb000e80f57000400320040002000f00f5700fa
:100cc00038003a000100370030002000e00f5400e7
:100cd000e08f5c00e00f5d00e08f5d0004003a00f3
:100ce000dc0890008d0120000100e00006003200c9
:100cf0008e00e900888060008fba9700e5c0780018
:100d0000f1ef9f007d012000800078008100e90064
:100d1000050033008b05d1000a85d3008984d300f8
:100d20000884d300f9ff3700089ebe000a96be0073
:100d3000120037008d06e9008e00e9008480600013
:100d40000fb99700e2c1780082fd2f000f0141002a
:100d500003f17e00800078008100e9000500330087
:100d60008783d1000683d3008582d3000482d30019
:100d7000f9ff3700049ebe000696be003c02be008e
:100d80002c03be00e00f5200e08f5a00e00f5b0022
:100d9000e08f5b008b0034000d00e000e5ff3c00bd
:100da000880037002c60900081c6b300814f50004e
:100db0000b00320006003c000004e0000800320096
:100dc000e6c05000814f50004e003a00040037004a
:100dd000c1c6b300814f50004a003a0021003700dd
:100de0000800e00004003a005c0890008d0120003b
:100df0000000e00006003200110009000e84d80057
:100e00000fb99700e2c07800f1ef9f007d0120004c
:100e1000110009000e84d8000a00370011000900f3
:100e20000e04d8008d06e9000e81b90002045400ba
:100e30008fb8970061417c0081fd2f008f804000ba
:100e400082f07e00000478000800e000020032001a
:100e50000d00e000f1ff3c00cfc4de00614db900a1
:100e600025003700e00f5400e08f5c0004003a00da
:100e70005c0890008d0120000000e00007003200b7
:100e80006171b9000800be00630107008fb99700c7
:100e9000e3417800f3ef9f007d0120006171b9000c
:100ea0000800be004c0107000b0037006171b9005b
:100eb0000800be00390107008d06e90000f1b90005
:100ec000020454000fba9700e4427c0084fd2f0016
:100ed0000f02420005f27e000004be00e00f500049
:100ee000e08f5800020032000d00e000efff3c00f0
:100ef0004fcdde008a057800089ebe000a96be002f
:100f000030003700e00f5400e08f5c00e00f5d0020
:100f1000e08f5d0004003a005c0890008d01200025
:100f20000000e000090032006172b900612bb900d5
:100f30000800be000a01be00da0107000fba9700e0
:100f400064427800f4ef9f007d0120006172b900d7
:100f5000612bb9000800be000a01be00ca010700eb
:100f60000d0037006172b900612bb9000800be00a6
:100f70000a01be00cf0107008d06e90000f2b900aa
:100f8000040454008fba970065427c0085fd2f0051
:100f90008f82420084f27e00009ebe000296be0058
:100fa0003c04be002c05be00e00f5400e08f5c0046
:100fb000e00f5d00e08f5d00020034000d00e000f6
:100fc000e8ff3c00e80f570010003a000c109000ba
:100fd0000038a3000d003200f78f560006003e00d7
:100fe00085fd2f008f824200e5c07e0000c3b30064
:100ff00080cf5000050032008d06e90002c3b30027
:1010000081fd2f008f80400082f07e0078811600e5
:10101000120e98006c00900083fd2f008f8141001c
:101020008d804100ddfe07001c089000dc08900068
:10103000810f500006003d0000805000000e980017
:101040000c1090000040a100001698000f0037001f
:101050000100e0000d003d008c109000f480600065
:10106000f08f500009003a007c099000fc009000cd
:10107000810051000c0990008280500000805000d7
:101080004240a90001003400000e98004f0778008c
:101090004f06be004f05be004f04be00cf01b10099
:1010a000000006000400fa00889fbe008a9fbe0070
:1010b0008c1f78000004780001067800f80d90007d
:1010c00078009000808555000808900080855500c4
:1010d00018089000808555002808900080855500ec
:1010e000380890008085550048089000808555009c
:1010f0000002220090bf9f0000032300a0bf9f00ba
:10110000081090000028a30015003a000b00e00032
:10111000130034000b0578008a047800e20f5500b4
:101120000100360029002000c80190000901780064
:10113000ee80570058009000030001005004980012
:101140000000e0008c0032006808900009004000b8
:10115000600c9800090555004240a900eeff3c00d4
:10116000780190000200e0000c003400c8019000fb
:101170008c00780058009000030001005004980093
:101180008080eb000000e0007c003200e808900066
:101190007800900000804000600c9800880c90005f
:1011a0000900e0001100340009057800e28f5400c6
:1011b000010036002a002000c80190000a017800d2
:1011c000ec80570058009000030001005004980084
:1011d0000000e00068003200680890000a0040004b
:1011e000600c98008a845400edff370018099000c5
:1011f0000200e0000c003400c8019000e8009000fc
:101200005800900003000100500498008080eb001b
:101210000000e00059003200e80890001808900033
:1012200000804000600c9800a80c90000900e000cd
:101230001100340009057800e28f540001003600e7
:101240002a002000c80190000a017800ec805700b5
:101250005800900003000100500498000000e000d6
:1012600045003200680890000a004000600c9800b9
:101270008a845400edff3700380990000200e00036
:101280000e003400e80090001808900080804000b4
:10129000c80190005800900003000100500498001d
:1012a0008080eb000000e00034003200e80890008d
:1012b0003808900000804000600c9800c80c900036
:1012c0000900e0001100340009057800e28f5400a5
:1012d000010036002a002000c80190000a017800b1
:1012e000ec80570058009000030001005004980063
:1012f0000000e00020003200680890000a00400072
:10130000600c98008a845400edff370008109000ac
:101310008000eb000028a300180032000b00e00062
:10132000160034008b04780009057800e28f540021
:10133000010036002a002000c80190000a01780050
:10134000ee80570058009000030001005004980000
:101350000000e00008003200680890000a00400029
:10136000600c98008a8454004240a900eeff3c00c3
:101370008000eb00010037008080eb000100780066
:101380004f0678004f05be004f04be000080fa00f3
:10139000000006000108780000000600839f680036
:1013a0000100e00002003d0060001000e080180035
:1013b0000300e00002003d0060011100e08119001f
:1013c000050007004f00e00002003b006000100035
:1013d000e0801800000006006022b800060220002d
:1013e0000000d0008180d2000482d2008582d20029
:1013f0000000a0000202520083825a000300310064
:101400000202420083824a000000a1000603e900b4
:10141000f3ff3a0000000600efff07000400be00e3
:1014200000000600889fbe008a9fbe003004420074
:10143000b0844a0030054b0090854b006000b1003d
:101440000898be000a90be000440e10005c8e10013
:1014500006d0e10007d8e10002003100680040003a
:101460001008e8004f05be004f04be000000060053
:10147000889fbe008a9fbe003004be002005be00cb
:101480000418540005985c0006185d0007985d007c
:10149000110020000440e10005c8e10006d0e10091
:1014a00007d8e100010039008000eb00108810002f
:1014b0004f05be004f04be00000006001200fa00f7
:1014c000889fbe008a9fbe008c9fbe00e0b79f0031
:1014d000f1b79f0082bf9f0093bf9f000605be002b
:1014e0000404be000000eb00d0b79f00c0b79f000f
:1014f000b0b79f00a0b79f0090b79f000006eb0019
:101500005fb19700cfb09700820141003fb09700d4
:101510000200e00004003d00370007007e80570015
:10152000c0ff070003003700330007007e8057002c
:10153000cfff0700dfb697000d00e0000c0035007c
:101540006fb29700ffb297000fbb97009fbb970049
:1015500010002000010020006011b800000272009d
:101560008182720002037300838373001b000700f3
:101570000c06e80001042000810f5600e0ff3a004d
:101580000d00e00004003d000802be000a03be009a
:101590007e805700a3ff07005fa897000000e000cf
:1015a00005003a001fb29700afb297003fb3970013
:1015b000cfb39700090007006fb09700ffb0970006
:1015c0000fb997009fb997004f06be004f05be00a8
:1015d0004f04be000080fa00000006000100070072
:1015e00000000600a4b79f00b5b79f00c6b79f00d4
:1015f000d7b79f00000006004f09de00828171000e
:10160000b3b79f004f01de008180400082807000f0
:10161000a1b79f008fb097004f09de000000400087
:101620000200700090b79f007fa897004f01de0076
:10163000818040008280700081b79f000d0007000c
:101640004f3ade000000400004007000f0af9f0041
:10165000080007000402420085824a0006034b008e
:1016600087834b00dfff07000802be000a03be00ad
:10167000000006002fb29700bfb297004fb397004b
:10168000dfb3970000000600881f780018002000d4
:10169000881f780089ff07008f87e9004f047800d2
:1016a00000000600801feb0084ff07008f87e90021
:1016b00000000600889fbe008a9fbe00e00f500019
:1016c000e08f5800e00f5900e08f59000c003d00fa
:1016d0006044b8006055b8000000540081805c0090
:1016e00002015d0083815d001800200015000700e5
:1016f00008003d00180007000004eb00050037005b
:101700000004eb000f00070002003d00120007007c
:1017100018002000dcff07000800e000060032008f
:101720006022b8006033b8000000520081805a0087
:1017300002015b0083815b004f05be004f04be00c9
:1017400000000600e00f5200e08f5a00e00f5b003f
:10175000e08f5b00000006006044b8006055b800f0
:101760000402540085825c0006035d0087835d00ef
:1017700000000600889fbe008a9fbe008c1f780074
:10178000e00f5000e08f5800e00f5900e08f590043
:101790000d003d006044b8006055b80000005400e2
:1017a00081805c0002015d0083815d001c002000df
:1017b0000820e10009a8e1000ab0e1000bb8e1004f
:1017c0000d003d00080037000006eb00e00f52005e
:1017d000e08f5a00e00f5b00e08f5b0006003d00e9
:1017e0006044b8006055b8000402540085825c0073
:1017f00006035d0087835d00aaff07000c00e00080
:10180000060032006022b8006033b80000005200c9
:1018100081805a0002015b0083815b004f067800e3
:0c1820004f05be004f04be000000060093
:020000040000fa
:10182c0052460000206f00007065000072610000dd
:10183c007465000064200000547800000052000021
:10184c00462000006e6f00006e6f00007065000097
:10185c007261000074650000642000005478000080
:10186c0000520000462000006f70000065720000fe
:10187c0061740000656400002052000078000000d4
:10188c0052460000206e00006f6e00006f7000006a
:10189c006572000061740000656400002052000055
:1018ac005800000073740000722000003e310000ec
:1018bc0031200000636800006172000000540000d9
:1018cc00782000006f6b00000052000078200000b0
:1018dc006f6b00000000000031320000334100004b
:1018ec003435000036420000373800003943000020
:1018fc002a30000023440000627900007465000067
:10190c0020310000006e00006f6e000065200000aa
:10191c00310000002564000000800000c09400002d
:04192c00d4000000e3
:020000040000fa
:101930000000fa0006020700b1338000f0fd2f001e
:1019400000806000b0338800c03380000050a000e9
:10195000c033880051348000e0ff2f000080600019
:10196000503488000080fa00000006000200fa00ef
:10197000efff070011c0b3000040eb002e0007008e
:1019800000d82800b1052000cf020700a0c2b30094
:1019900032000700004f78001e80fb0064006000ea
:1019a0000000e000040032005f01070060c1280071
:1019b00046010700030037005b01070050c2280002
:1019c0004201070000d82800b1052000be02070030
:1019d0000080fa00000006000200fa00d4ff0700b1
:1019e00031c0b3000040eb001300070000202e00c0
:1019f00041002000b4020700a0c2b3001700070096
:101a0000004f78001e80fb00640060000000e000d2
:101a1000040032004401070070c328002b010700b6
:101a2000030037004001070060c4280027010700b9
:101a30000080fa00000006000200fa00004f780063
:101a4000114798001e407800f90107001e409000e1
:101a5000f70107000080fa00000006000200fa000b
:101a6000004f78001e4078000074a000f0010700cd
:101a7000fc0107000080fb000080fa000000060067
:101a80000200fa00004f78009e407800f0c3b300d7
:101a9000e9ff07000080fa00000006000000fa00dd
:101aa00021c0b300b0c3b300e3ff07000000000093
:101ab00060348000610060000000e000fcff320044
:101ac000f0c3b300e5ff0700004078000080fa0093
:101ad000000006000600fa00204798002107980041
:101ae0002e0090004dfa0700004f78001e4078004d
:101af000eb4f5000040036000b01070080c52800a2
:101b0000f20007003e0037001e407800e34f50000f
:101b100008003e001e80fb00010120000008dd00df
:101b20000040780080407800e0c3b300c2ff0700a7
:101b30000b0037001e407800e34f500008003600cd
:101b40001e80fb0064005000110020000008dd0032
:101b50000040780080407800d0c3b300b6ff070093
:101b60001e407800e14f500006003a002e00900021
:101b70000040780080407800f0c3b300aeff07005b
:101b800012003700f0c3b300a90107002e00900037
:101b900000407800a6010700ae009000300220004f
:101ba0000080680000f0a7000000ea000000e900e3
:101bb0004f00de0000407800ae0090008100e80099
:101bc000210798000004e000f0ff3a0090c3b30042
:101bd000a2ff0700004f7800000000001e407800c0
:101be0000004e000fdff3500cf00070050c62800cc
:101bf000b600070000482800e1012000320207007b
:101c00000080fa00000006000400fa0010079800a7
:101c10009e009000010f78000000000060348000fa
:101c2000610060000000e000fcff3200f0c3b30080
:101c30008aff0700f0c3b30088ff070080407800e8
:101c40001e007800014878001e007800904078005f
:101c500030c2b30000c068000080fb000000e90053
:101c60004f00de00004078001e0fe8000004e00096
:101c7000f0ff3a001e0078008040eb000148780039
:101c8000a9000700b0c628009000070000482800ff
:101c9000e10120000c0207000080fa0000000600ad
:101ca0000000fa00be000700e0c4b300d600070041
:101cb00020c0b3000800070080c2b3000600070080
:101cc000c0c0b3000400070010c0b300020007004a
:101cd0000080fa00000006000200fa00004f7800c1
:101ce0000040eb00c800070000fa200001002000bf
:101cf000f501070040c0b300c300070000fa200050
:101d000001002000f00107009e40780000cfb300e2
:101d100000c060000024a000bb00070000fa200003
:101d200001002000e801070000cfb3001e40600062
:101d3000b500070000fa200001002000e2010700c2
:101d400040c0b300b000070000fa200001002000ee
:101d5000dd0107001e80fb004400dd00004078002c
:101d60000024a000a800070000fa200001002000c5
:101d7000d50107001e80fb004400dd000040780014
:101d8000a100070000fa200001002000ce0107009a
:101d90000080fa00000006000200fa00004f780000
:101da00010c0b3009800070000fa200001002000d6
:101db000c501070050c0b3009300070000fa2000df
:101dc00001002000c00107009e40780000cfb30052
:101dd00000c060005040b3008b00070000fa2000f4
:101de00001002000b80107009e40780000cfb3003a
:101df00000c060000004a0008300070000fa20007b
:101e000001002000b001070050c0b3007e000700b1
:101e100000fa200001002000ab0107001e80fb003b
:101e20004400dd00004078005040b3007600070019
:101e300000fa200001002000a30107001e80fb0023
:101e40004400dd00004078000004a0006e000700a0
:101e500000fa2000010020009b0107000080fa002a
:101e6000000006000600fa0040479800514798001d
:101e700031c9280003000900315f78004e00b1002d
:101e80004e4090000080fb000000e900ee4078002a
:101e90005e40900000c040000040e9008eff070057
:101ea00000fa200001002000870107000080fa00ee
:101eb000000006000200fa00004f78001e40780083
:101ec000b5ff07000080fa00000006000200fa00db
:101ed000000f78001e007800104078001e0fe80008
:101ee000adff07001e007800104078000004e000fd
:101ef000f8ff3a000080fa00000006000400fa0033
:101f0000004f780011479800120798009e409000fb
:101f10001e407800d3ff07001e009000ebff070073
:101f20000080fa00000006000000fa0010c0b300b4
:101f300069ff070011c0b30010c0b300c9ff07005c
:101f40000080fa00000006001200fa00000f98005e
:101f50000e0078008e089000811f780001c92800cb
:101f6000811f78003af90700e48757000e007800d7
:101f7000d6ff07000080fa00000006000000fa000b
:101f80009a24a80000000000d024800062006000b5
:101f90000000e000fcff3a000080fa0000000600ac
:101fa0000000fa009be4a9009e24ef00300120000d
:101fb000c02488009be4a8000080fa00000006000e
:101fc0000000fa009a04a80000000000d02480005d
:101fd000610060000000e000fcff3a000080fa00b1
:101fe000000006000000fa009a44a800000000006b
:101ff000d0248000640060000000e000fcff3a0094
:102000000080fa00000006000200fa00004f78008d
:102010001e80fb00b024880000000000f024800037
:10202000610060000000e000fcff3a0018000700bb
:102030000080fa00000006000400fa002047980023
:102040000040eb00004f78009a64a80000000000f8
:10205000f0248000610060000000e000fcff32001e
:10206000a0248000004f7800090007002e40900057
:10207000e14f500002003a001d0007000100370048
:10208000250007001e4078000080fa0000000600ce
:102090000000fa0000000000d02480006100600011
:1020a0000000e000fcff3a00d024800062006000e5
:1020b0000000e000f8ff3a00d024800064006000d7
:1020c0000000e000f4ff3a00d024800068006000c7
:1020d0000000e000f0ff3a00f0248000640060009f
:1020e0000000e000ecff3a000080fa00000006006b
:1020f0000000fa009aa4a9009a84a8000000000039
:10210000d0248000700060000000e000fcff3a0076
:102110000080fa00000006000000fa009aa4a8005f
:102120009a84a80000000000d024800070006000a5
:102130000000e000fcff3a000080fa00000006000a
:102140000000fa00f5e3a9000080fa000000060094
:102150000000fa00b03380000090a000b033880087
:1021600051348000b0ff2f000080600050348800a0
:1021700051348000f0fb2f00008060005034880054
:1021800011338000f0bf2f00008060001033880002
:10219000a11f800000002800008060000000e00017
:1021a0001d003a00b03380000030a000b03388003a
:1021b000b1338000f0fe2f0000806000b033880053
:1021c000b1338000b0ff2f0000806000b033880082
:1021d000b1338000f0fd2f0000806000b033880034
:1021e000f623ef00f823ef00fc23ef00fe23ef00bf
:1021f00030012000202088000824ef000a24ef008e
:102200000c24ef000e24ef00f4a3a800f5e3a800cf
:1022100010c0b300010037000040eb000080fa005e
:10222000000006000000fa000080fa00000006002e
:102230000200fa00004f78001e80fb00002088009a
:1022400000000000e01f8000610060000000e0006e
:10225000fcff320000208000004078000080fa007f
:10226000000006000000fa0000000000e01f8000ef
:10227000610060000000e000fcff320000208000f0
:10228000004078000080fa00000006001200fa000a
:10229000e200470022c728000f000900b25878006a
:1022a0001133800000ff2f00008060001033880091
:1022b0000040eb00004f78002c003700f0fe2f00ac
:1022c000b03388007826ef0080072000010020004e
:1022d0007d0007000040eb00104798001f0037000a
:1022e0001e4090000080fb00110020000008dd006f
:1022f0008000780020338000008060000000e00053
:1023000013003a00000000001e4090000080fb0017
:10231000110020000008dd008000780020338000dc
:10232000008060000000e000f7ff32001e409000d7
:102330008080fb001e80fb00c208dd0000804000a2
:1023400000004700204090000080fa0000000600d6
:102350001e4090000040e800104798001e4090008a
:10236000e34f5000deff36001e4fe8001e407800ad
:10237000e34f5000d1ff3600cdff37000200fa00d6
:10238000000f7800010037001e0fe9001e007800e2
:102390000000e000fcff3a000080fa0000000600a8
:1023a0000200fa00000f780003003700c01220007e
:1023b000f2ff07001e0fe9001e0078000000e00099
:1023c000faff3a000080fa00000006000200fa005e
:1023d000000f780003003700803e2000f0ff070068
:1023e0001e0fe9001e0078000000e000faff3a002e
:0823f0000080fa000000060065
:020000040000fa
:1023f800220800001a00000082000000686a6c00d1
:10240800747a4c000000010000020000040008007b
:1024180000100000000020002b2d230030000000d9
:102428000008000022000000820000003031320065
:1024380033343500363738003941420043444500cb
:102448004600300031323300343536003738390031
:10245800616263006465660000000000000000001f
:020000040000fa
:102468000200fa000cfe0700adfe07002efd070073
:1024780011c0b3000040eb006dfd070000d8280034
:10248800b10520000e0007000040eb0071fd0700b9
:10249800004f78001e407800e14f500004003a00d9
:1024a8009ffe070020c8280086fe070003003700ab
:1024b8009bfe070090c8280082fe0700ffff370038
:020000040000fa
:1024c800f03fb1000180b10006003500ee030900bd
:1024d80000000000403fb1000180b100fbff3d005b
:1024e8001000b000203fb000020035000080090055
:0824f8000000000000000600d6
:020000040000fa
:020000040005f5
:045e0000ff7f000020
:020000040000fa
:020000040005f5
:045e2000ffffff0081
:020000040000fa
:020000040005f5
:045e300078ffff00f8
:020000040000fa
:020000040005f5
:045e38004bffff001d
:020000040000fa
:020000040005f5
:045e4000dfffff0081
:020000040000fa
:020000040005f5
:045e4800ffffff0059
:020000040000fa
:020000040005f5
:045e5000deffff0072
:020000040000fa
:020000040005f5
:045e5800efffff0059
:00000001FF
